{
  "_format": "hh-sol-artifact-1",
  "contractName": "Allowances",
  "sourceName": "contracts/allowances.sol",
  "abi": [
    {
      "inputs": [
        {
          "internalType": "bytes32",
          "name": "currency",
          "type": "bytes32"
        }
      ],
      "name": "addressCurrency",
      "outputs": [
        {
          "internalType": "address",
          "name": "",
          "type": "address"
        }
      ],
      "stateMutability": "view",
      "type": "function"
    },
    {
      "inputs": [],
      "name": "allCurrenciesAllowed",
      "outputs": [
        {
          "internalType": "bytes32[]",
          "name": "",
          "type": "bytes32[]"
        }
      ],
      "stateMutability": "view",
      "type": "function"
    }
  ],
  "bytecode": "0x608060405234801561001057600080fd5b506104a1806100206000396000f3fe608060405234801561001057600080fd5b50600436106100365760003560e01c806346da743e1461003b578063a8ca9f681461006b575b600080fd5b61005560048036038101906100509190610223565b610089565b6040516100629190610291565b60405180910390f35b6100736100c5565b604051610080919061036a565b60405180910390f35b600080600083815260200190815260200160002060009054906101000a900473ffffffffffffffffffffffffffffffffffffffff169050919050565b606060006100d36001610180565b905060008167ffffffffffffffff8111156100f1576100f061038c565b5b60405190808252806020026020018201604052801561011f5781602001602082028036833780820191505090505b50905060005b8281101561017757600061014382600161019590919063ffffffff16565b905080838381518110610159576101586103bb565b5b602002602001018181525050508061017090610423565b9050610125565b50809250505090565b600061018e826000016101ac565b9050919050565b60006101a483600001836101bd565b905092915050565b600081600001805490509050919050565b60008260000182815481106101d5576101d46103bb565b5b9060005260206000200154905092915050565b600080fd5b6000819050919050565b610200816101ed565b811461020b57600080fd5b50565b60008135905061021d816101f7565b92915050565b600060208284031215610239576102386101e8565b5b60006102478482850161020e565b91505092915050565b600073ffffffffffffffffffffffffffffffffffffffff82169050919050565b600061027b82610250565b9050919050565b61028b81610270565b82525050565b60006020820190506102a66000830184610282565b92915050565b600081519050919050565b600082825260208201905092915050565b6000819050602082019050919050565b6102e1816101ed565b82525050565b60006102f383836102d8565b60208301905092915050565b6000602082019050919050565b6000610317826102ac565b61032181856102b7565b935061032c836102c8565b8060005b8381101561035d57815161034488826102e7565b975061034f836102ff565b925050600181019050610330565b5085935050505092915050565b60006020820190508181036000830152610384818461030c565b905092915050565b7f4e487b7100000000000000000000000000000000000000000000000000000000600052604160045260246000fd5b7f4e487b7100000000000000000000000000000000000000000000000000000000600052603260045260246000fd5b7f4e487b7100000000000000000000000000000000000000000000000000000000600052601160045260246000fd5b6000819050919050565b600061042e82610419565b91507fffffffffffffffffffffffffffffffffffffffffffffffffffffffffffffffff82036104605761045f6103ea565b5b60018201905091905056fea2646970667358221220c5c1b70593a69fdcf6283785da1c72d36d5771d16b71b5b9fd01820ee0e6041164736f6c63430008110033",
  "linkReferences": {},
  "deployedLinkReferences": {}
}