{
  "_format": "hh-sol-artifact-1",
  "contractName": "KLG",
  "sourceName": "contracts/KLG.sol",
  "abi": [
    {
      "inputs": [],
      "stateMutability": "nonpayable",
      "type": "constructor"
    },
    {
      "inputs": [],
      "name": "AlraeadyUsedMatterNO",
      "type": "error"
    },
    {
      "inputs": [],
      "name": "ClientNotAgreed",
      "type": "error"
    },
    {
      "inputs": [],
      "name": "CurrencyNotAllowed",
      "type": "error"
    },
    {
      "inputs": [],
      "name": "InvalidBalance",
      "type": "error"
    },
    {
      "inputs": [],
      "name": "InvalidMatterNumber",
      "type": "error"
    },
    {
      "inputs": [],
      "name": "NoAmountLeft",
      "type": "error"
    },
    {
      "inputs": [],
      "name": "NoReleaseLeft",
      "type": "error"
    },
    {
      "inputs": [],
      "name": "NotRecived",
      "type": "error"
    },
    {
      "inputs": [],
      "name": "allreadyAgreed",
      "type": "error"
    },
    {
      "inputs": [],
      "name": "invalidAllowance",
      "type": "error"
    },
    {
      "anonymous": false,
      "inputs": [
        {
          "indexed": true,
          "internalType": "bytes32",
          "name": "role",
          "type": "bytes32"
        },
        {
          "indexed": true,
          "internalType": "bytes32",
          "name": "previousAdminRole",
          "type": "bytes32"
        },
        {
          "indexed": true,
          "internalType": "bytes32",
          "name": "newAdminRole",
          "type": "bytes32"
        }
      ],
      "name": "RoleAdminChanged",
      "type": "event"
    },
    {
      "anonymous": false,
      "inputs": [
        {
          "indexed": true,
          "internalType": "bytes32",
          "name": "role",
          "type": "bytes32"
        },
        {
          "indexed": true,
          "internalType": "address",
          "name": "account",
          "type": "address"
        },
        {
          "indexed": true,
          "internalType": "address",
          "name": "sender",
          "type": "address"
        }
      ],
      "name": "RoleGranted",
      "type": "event"
    },
    {
      "anonymous": false,
      "inputs": [
        {
          "indexed": true,
          "internalType": "bytes32",
          "name": "role",
          "type": "bytes32"
        },
        {
          "indexed": true,
          "internalType": "address",
          "name": "account",
          "type": "address"
        },
        {
          "indexed": true,
          "internalType": "address",
          "name": "sender",
          "type": "address"
        }
      ],
      "name": "RoleRevoked",
      "type": "event"
    },
    {
      "inputs": [],
      "name": "CLIENT_ROLE",
      "outputs": [
        {
          "internalType": "bytes32",
          "name": "",
          "type": "bytes32"
        }
      ],
      "stateMutability": "view",
      "type": "function"
    },
    {
      "inputs": [],
      "name": "DEFAULT_ADMIN_ROLE",
      "outputs": [
        {
          "internalType": "bytes32",
          "name": "",
          "type": "bytes32"
        }
      ],
      "stateMutability": "view",
      "type": "function"
    },
    {
      "inputs": [],
      "name": "PATNER_ROLE",
      "outputs": [
        {
          "internalType": "bytes32",
          "name": "",
          "type": "bytes32"
        }
      ],
      "stateMutability": "view",
      "type": "function"
    },
    {
      "inputs": [
        {
          "internalType": "bytes32",
          "name": "currency",
          "type": "bytes32"
        },
        {
          "internalType": "address",
          "name": "currencyAddress",
          "type": "address"
        }
      ],
      "name": "addCurrency",
      "outputs": [],
      "stateMutability": "nonpayable",
      "type": "function"
    },
    {
      "inputs": [
        {
          "internalType": "bytes32",
          "name": "currency",
          "type": "bytes32"
        }
      ],
      "name": "addressCurrency",
      "outputs": [
        {
          "internalType": "address",
          "name": "",
          "type": "address"
        }
      ],
      "stateMutability": "view",
      "type": "function"
    },
    {
      "inputs": [
        {
          "internalType": "uint256",
          "name": "_matterNumber",
          "type": "uint256"
        }
      ],
      "name": "agreedEscrow",
      "outputs": [],
      "stateMutability": "nonpayable",
      "type": "function"
    },
    {
      "inputs": [],
      "name": "allCurrenciesAllowed",
      "outputs": [
        {
          "internalType": "bytes32[]",
          "name": "",
          "type": "bytes32[]"
        }
      ],
      "stateMutability": "view",
      "type": "function"
    },
    {
      "inputs": [],
      "name": "allMatterNumbers",
      "outputs": [
        {
          "internalType": "uint256[]",
          "name": "",
          "type": "uint256[]"
        }
      ],
      "stateMutability": "view",
      "type": "function"
    },
    {
      "inputs": [
        {
          "internalType": "uint256[]",
          "name": "matterNumbers",
          "type": "uint256[]"
        }
      ],
      "name": "batchDetailsMatters",
      "outputs": [
        {
          "components": [
            {
              "internalType": "bool",
              "name": "_clientAgreed",
              "type": "bool"
            },
            {
              "internalType": "uint64",
              "name": "_noOfReleases",
              "type": "uint64"
            },
            {
              "internalType": "uint64",
              "name": "_receivedRelease",
              "type": "uint64"
            },
            {
              "internalType": "uint128",
              "name": "_duration",
              "type": "uint128"
            },
            {
              "internalType": "uint256",
              "name": "_matterNumber",
              "type": "uint256"
            },
            {
              "internalType": "uint256",
              "name": "_totalAmount",
              "type": "uint256"
            },
            {
              "internalType": "uint256",
              "name": "_remainAmount",
              "type": "uint256"
            },
            {
              "internalType": "uint256",
              "name": "_escrowdate",
              "type": "uint256"
            },
            {
              "internalType": "address",
              "name": "_patnerAddress",
              "type": "address"
            },
            {
              "internalType": "address",
              "name": "_clientAddress",
              "type": "address"
            },
            {
              "internalType": "bytes32",
              "name": "_currency",
              "type": "bytes32"
            },
            {
              "internalType": "string",
              "name": "_assetName",
              "type": "string"
            }
          ],
          "internalType": "struct escrowStorage.escrow[]",
          "name": "",
          "type": "tuple[]"
        }
      ],
      "stateMutability": "view",
      "type": "function"
    },
    {
      "inputs": [
        {
          "internalType": "uint256",
          "name": "_matterNumber",
          "type": "uint256"
        },
        {
          "internalType": "string",
          "name": "_assetName",
          "type": "string"
        },
        {
          "internalType": "bytes32",
          "name": "_currency",
          "type": "bytes32"
        },
        {
          "internalType": "address",
          "name": "_clientAddress",
          "type": "address"
        },
        {
          "internalType": "uint256",
          "name": "_totalAmount",
          "type": "uint256"
        },
        {
          "internalType": "uint64",
          "name": "_noOfReleases",
          "type": "uint64"
        },
        {
          "internalType": "uint128",
          "name": "_duration",
          "type": "uint128"
        },
        {
          "internalType": "string",
          "name": "_fileHash",
          "type": "string"
        }
      ],
      "name": "createEscrow",
      "outputs": [],
      "stateMutability": "nonpayable",
      "type": "function"
    },
    {
      "inputs": [
        {
          "internalType": "uint256",
          "name": "_matterNumber",
          "type": "uint256"
        }
      ],
      "name": "escrowDetails",
      "outputs": [
        {
          "internalType": "uint256",
          "name": "MatterNumber",
          "type": "uint256"
        },
        {
          "internalType": "string",
          "name": "Assetname",
          "type": "string"
        },
        {
          "internalType": "bytes32",
          "name": "currency",
          "type": "bytes32"
        },
        {
          "internalType": "address",
          "name": "patnerAddr",
          "type": "address"
        },
        {
          "internalType": "address",
          "name": "clientAddr",
          "type": "address"
        },
        {
          "internalType": "bool",
          "name": "clientAgree",
          "type": "bool"
        },
        {
          "internalType": "uint256",
          "name": "TotalAmount",
          "type": "uint256"
        },
        {
          "internalType": "uint64",
          "name": "NoOfReleases",
          "type": "uint64"
        }
      ],
      "stateMutability": "view",
      "type": "function"
    },
    {
      "inputs": [
        {
          "internalType": "bytes32",
          "name": "role",
          "type": "bytes32"
        }
      ],
      "name": "getRoleAdmin",
      "outputs": [
        {
          "internalType": "bytes32",
          "name": "",
          "type": "bytes32"
        }
      ],
      "stateMutability": "view",
      "type": "function"
    },
    {
      "inputs": [
        {
          "internalType": "uint256",
          "name": "matternumber",
          "type": "uint256"
        }
      ],
      "name": "getescrowHash",
      "outputs": [
        {
          "internalType": "string",
          "name": "",
          "type": "string"
        }
      ],
      "stateMutability": "view",
      "type": "function"
    },
    {
      "inputs": [
        {
          "internalType": "bytes32",
          "name": "role",
          "type": "bytes32"
        },
        {
          "internalType": "address",
          "name": "account",
          "type": "address"
        }
      ],
      "name": "grantRole",
      "outputs": [],
      "stateMutability": "nonpayable",
      "type": "function"
    },
    {
      "inputs": [
        {
          "internalType": "bytes32",
          "name": "role",
          "type": "bytes32"
        },
        {
          "internalType": "address",
          "name": "account",
          "type": "address"
        }
      ],
      "name": "hasRole",
      "outputs": [
        {
          "internalType": "bool",
          "name": "",
          "type": "bool"
        }
      ],
      "stateMutability": "view",
      "type": "function"
    },
    {
      "inputs": [
        {
          "internalType": "uint256",
          "name": "_matterNumber",
          "type": "uint256"
        }
      ],
      "name": "releaseEscrowAmount",
      "outputs": [],
      "stateMutability": "nonpayable",
      "type": "function"
    },
    {
      "inputs": [
        {
          "internalType": "bytes32",
          "name": "currency",
          "type": "bytes32"
        }
      ],
      "name": "removeCurrency",
      "outputs": [],
      "stateMutability": "nonpayable",
      "type": "function"
    },
    {
      "inputs": [
        {
          "internalType": "bytes32",
          "name": "role",
          "type": "bytes32"
        },
        {
          "internalType": "address",
          "name": "account",
          "type": "address"
        }
      ],
      "name": "renounceRole",
      "outputs": [],
      "stateMutability": "nonpayable",
      "type": "function"
    },
    {
      "inputs": [
        {
          "internalType": "bytes32",
          "name": "role",
          "type": "bytes32"
        },
        {
          "internalType": "address",
          "name": "account",
          "type": "address"
        }
      ],
      "name": "revokeRole",
      "outputs": [],
      "stateMutability": "nonpayable",
      "type": "function"
    },
    {
      "inputs": [
        {
          "internalType": "bytes4",
          "name": "interfaceId",
          "type": "bytes4"
        }
      ],
      "name": "supportsInterface",
      "outputs": [
        {
          "internalType": "bool",
          "name": "",
          "type": "bool"
        }
      ],
      "stateMutability": "view",
      "type": "function"
    },
    {
      "inputs": [],
      "name": "totalMatters",
      "outputs": [
        {
          "internalType": "uint256",
          "name": "",
          "type": "uint256"
        }
      ],
      "stateMutability": "view",
      "type": "function"
    },
    {
      "inputs": [
        {
          "internalType": "uint256",
          "name": "index",
          "type": "uint256"
        }
      ],
      "name": "totalMattersNumberByIndex",
      "outputs": [
        {
          "internalType": "uint256",
          "name": "",
          "type": "uint256"
        }
      ],
      "stateMutability": "view",
      "type": "function"
    }
  ],
  "bytecode": "0x60806040523480156200001157600080fd5b50620000276000801b336200009160201b60201c565b620000597f2daed369a5b7514cfb35f0a090c053f66dee078e5d8a6d0f483738c6d8ca05a3336200009160201b60201c565b6200008b7fa5ff3ec7a96cdbba4d2d5172d66bbc73c6db3885f29b21be5da9fa7a7c025232336200009160201b60201c565b620001f4565b620000a382826200018260201b60201c565b6200017e57600160008084815260200190815260200160002060000160008373ffffffffffffffffffffffffffffffffffffffff1673ffffffffffffffffffffffffffffffffffffffff16815260200190815260200160002060006101000a81548160ff02191690831515021790555062000123620001ec60201b60201c565b73ffffffffffffffffffffffffffffffffffffffff168173ffffffffffffffffffffffffffffffffffffffff16837f2f8788117e7eff1d82e926ec794901d17c78024a50270940304540a733656f0d60405160405180910390a45b5050565b600080600084815260200190815260200160002060000160008373ffffffffffffffffffffffffffffffffffffffff1673ffffffffffffffffffffffffffffffffffffffff16815260200190815260200160002060009054906101000a900460ff16905092915050565b600033905090565b613afd80620002046000396000f3fe608060405234801561001057600080fd5b50600436106101425760003560e01c80637dc9391e116100b8578063a8ca9f681161007c578063a8ca9f68146103a2578063c7d63a13146103c0578063d547741f146103dc578063e7ec1cd8146103f8578063eae6f65214610428578063efd4ad5a1461044657610142565b80637dc9391e146102ea5780638d17b4ff1461030657806391d1485414610336578063a217fddf14610366578063a71ee7181461038457610142565b80632f2ff15d1161010a5780632f2ff15d1461022a5780632fe37bf71461024657806336568abe1461026457806346da743e1461028057806346f2e433146102b0578063564951a9146102cc57610142565b806301ffc9a71461014757806305833f401461017757806309bb147b146101ae57806317711a64146101ca578063248a9ca3146101fa575b600080fd5b610161600480360381019061015c919061266e565b610462565b60405161016e91906126b6565b60405180910390f35b610191600480360381019061018c9190612707565b6104dc565b6040516101a5989796959493929190612850565b60405180910390f35b6101c860048036038101906101c39190612ad6565b61051f565b005b6101e460048036038101906101df9190612c8c565b6107a7565b6040516101f19190612f3f565b60405180910390f35b610214600480360381019061020f9190612f61565b610ab9565b6040516102219190612f8e565b60405180910390f35b610244600480360381019061023f9190612fa9565b610ad8565b005b61024e610af9565b60405161025b9190612f8e565b60405180910390f35b61027e60048036038101906102799190612fa9565b610b1d565b005b61029a60048036038101906102959190612f61565b610ba0565b6040516102a79190612fe9565b60405180910390f35b6102ca60048036038101906102c59190612707565b610bdd565b005b6102d4610fce565b6040516102e19190613004565b60405180910390f35b61030460048036038101906102ff9190612707565b610fdf565b005b610320600480360381019061031b9190612707565b6113d1565b60405161032d9190613004565b60405180910390f35b610350600480360381019061034b9190612fa9565b6113ee565b60405161035d91906126b6565b60405180910390f35b61036e611458565b60405161037b9190612f8e565b60405180910390f35b61038c61145f565b60405161039991906130ce565b60405180910390f35b6103aa61150d565b6040516103b7919061319f565b60405180910390f35b6103da60048036038101906103d59190612fa9565b6115c8565b005b6103f660048036038101906103f19190612fa9565b6115e4565b005b610412600480360381019061040d9190612707565b611605565b60405161041f91906131c1565b60405180910390f35b6104306116aa565b60405161043d9190612f8e565b60405180910390f35b610460600480360381019061045b9190612f61565b6116ce565b005b60007f7965db0b000000000000000000000000000000000000000000000000000000007bffffffffffffffffffffffffffffffffffffffffffffffffffffffff1916827bffffffffffffffffffffffffffffffffffffffffffffffffffffffff191614806104d557506104d4826116e8565b5b9050919050565b60006060600080600080600080610504600760008b8152602001908152602001600020611752565b97509750975097509750975097509750919395975091939597565b7f2daed369a5b7514cfb35f0a090c053f66dee078e5d8a6d0f483738c6d8ca05a36105498161188e565b60011515610568600760008c81526020019081526020016000206118a2565b1515036105a1576040517f995c662300000000000000000000000000000000000000000000000000000000815260040160405180910390fd5b6105aa876118c2565b6105e0576040517f25f2f2ff00000000000000000000000000000000000000000000000000000000815260040160405180910390fd5b60006105eb88610ba0565b9050858173ffffffffffffffffffffffffffffffffffffffff166370a08231336040518263ffffffff1660e01b81526004016106279190612fe9565b602060405180830381865afa158015610644573d6000803e3d6000fd5b505050506040513d601f19601f8201168201806040525081019061066891906131f8565b10156106a0576040517fc52e3eff00000000000000000000000000000000000000000000000000000000815260040160405180910390fd5b858173ffffffffffffffffffffffffffffffffffffffff1663dd62ed3e33306040518363ffffffff1660e01b81526004016106dc929190613225565b602060405180830381865afa1580156106f9573d6000803e3d6000fd5b505050506040513d601f19601f8201168201806040525081019061071d91906131f8565b1015610755576040517f7dcc7add00000000000000000000000000000000000000000000000000000000815260040160405180910390fd5b6107658a8a8a338b8b8b8b61192e565b82600860008c81526020019081526020016000209081610785919061345a565b5061079a8a600561197190919063ffffffff16565b5050505050505050505050565b60606000825167ffffffffffffffff8111156107c6576107c56128df565b5b6040519080825280602002602001820160405280156107ff57816020015b6107ec61254a565b8152602001906001900390816107e45790505b50905060005b8351811015610aaf57600760008583815181106108255761082461352c565b5b60200260200101518152602001908152602001600020604051806101800160405290816000820160009054906101000a900460ff161515151581526020016000820160019054906101000a900467ffffffffffffffff1667ffffffffffffffff1667ffffffffffffffff1681526020016000820160099054906101000a900467ffffffffffffffff1667ffffffffffffffff1667ffffffffffffffff1681526020016001820160009054906101000a90046fffffffffffffffffffffffffffffffff166fffffffffffffffffffffffffffffffff166fffffffffffffffffffffffffffffffff168152602001600282015481526020016003820154815260200160048201548152602001600582015481526020016006820160009054906101000a900473ffffffffffffffffffffffffffffffffffffffff1673ffffffffffffffffffffffffffffffffffffffff1673ffffffffffffffffffffffffffffffffffffffff1681526020016007820160009054906101000a900473ffffffffffffffffffffffffffffffffffffffff1673ffffffffffffffffffffffffffffffffffffffff1673ffffffffffffffffffffffffffffffffffffffff168152602001600882015481526020016009820180546109fe9061327d565b80601f0160208091040260200160405190810160405280929190818152602001828054610a2a9061327d565b8015610a775780601f10610a4c57610100808354040283529160200191610a77565b820191906000526020600020905b815481529060010190602001808311610a5a57829003601f168201915b505050505081525050828281518110610a9357610a9261352c565b5b602002602001018190525080610aa89061358a565b9050610805565b5080915050919050565b6000806000838152602001908152602001600020600101549050919050565b610ae182610ab9565b610aea8161188e565b610af4838361198b565b505050565b7f2daed369a5b7514cfb35f0a090c053f66dee078e5d8a6d0f483738c6d8ca05a381565b610b25611a6b565b73ffffffffffffffffffffffffffffffffffffffff168173ffffffffffffffffffffffffffffffffffffffff1614610b92576040517f08c379a0000000000000000000000000000000000000000000000000000000008152600401610b8990613644565b60405180910390fd5b610b9c8282611a73565b5050565b60006001600083815260200190815260200160002060009054906101000a900473ffffffffffffffffffffffffffffffffffffffff169050919050565b7fa5ff3ec7a96cdbba4d2d5172d66bbc73c6db3885f29b21be5da9fa7a7c025232610c078161188e565b3373ffffffffffffffffffffffffffffffffffffffff16610c3960076000858152602001908152602001600020611b54565b73ffffffffffffffffffffffffffffffffffffffff1614610c86576040517f5a657a4500000000000000000000000000000000000000000000000000000000815260040160405180910390fd5b610ca160076000848152602001908152602001600020611b82565b610cd7576040517f9cb23f7900000000000000000000000000000000000000000000000000000000815260040160405180910390fd5b6000610cf460076000858152602001908152602001600020611b9d565b11610d2b576040517fe7c49c6a00000000000000000000000000000000000000000000000000000000815260040160405180910390fd5b610d4660076000848152602001908152602001600020611bab565b610d6160076000858152602001908152602001600020611bd7565b67ffffffffffffffff161015610da3576040517f9332f64900000000000000000000000000000000000000000000000000000000815260040160405180910390fd5b6000610dc060076000858152602001908152602001600020611bd7565b67ffffffffffffffff16610de560076000868152602001908152602001600020611bf9565b610def9190613693565b90506000610e0e60076000868152602001908152602001600020611bab565b9050600181610e1d91906136c4565b905062015180610e3e60076000878152602001908152602001600020611c07565b6fffffffffffffffffffffffffffffffff1682610e5b91906136f8565b610e6591906136f8565b610e8060076000878152602001908152602001600020611c31565b610e8a91906136c4565b4210610f7b57610eb58260076000878152602001908152602001600020611c3f90919063ffffffff16565b6000610eda610ed560076000888152602001908152602001600020611c5e565b610ba0565b90508073ffffffffffffffffffffffffffffffffffffffff1663a9059cbb610f1360076000898152602001908152602001600020611b54565b856040518363ffffffff1660e01b8152600401610f3192919061373a565b6020604051808303816000875af1158015610f50573d6000803e3d6000fd5b505050506040513d601f19601f82011682018060405250810190610f74919061378f565b5050610fad565b6040517f1483af7500000000000000000000000000000000000000000000000000000000815260040160405180910390fd5b610fc860076000868152602001908152602001600020611c6c565b50505050565b6000610fda6005611cbd565b905090565b7fa5ff3ec7a96cdbba4d2d5172d66bbc73c6db3885f29b21be5da9fa7a7c0252326110098161188e565b3373ffffffffffffffffffffffffffffffffffffffff1661103b60076000858152602001908152602001600020611b54565b73ffffffffffffffffffffffffffffffffffffffff1614611088576040517f5a657a4500000000000000000000000000000000000000000000000000000000815260040160405180910390fd5b60006110ad6110a860076000868152602001908152602001600020611c5e565b610ba0565b90506110ca60076000858152602001908152602001600020611bf9565b8173ffffffffffffffffffffffffffffffffffffffff166370a0823161110160076000888152602001908152602001600020611cd2565b6040518263ffffffff1660e01b815260040161111d9190612fe9565b602060405180830381865afa15801561113a573d6000803e3d6000fd5b505050506040513d601f19601f8201168201806040525081019061115e91906131f8565b1015611196576040517fc52e3eff00000000000000000000000000000000000000000000000000000000815260040160405180910390fd5b6111b160076000858152602001908152602001600020611bf9565b8173ffffffffffffffffffffffffffffffffffffffff1663dd62ed3e6111e860076000888152602001908152602001600020611cd2565b306040518363ffffffff1660e01b8152600401611206929190613225565b602060405180830381865afa158015611223573d6000803e3d6000fd5b505050506040513d601f19601f8201168201806040525081019061124791906131f8565b101561127f576040517f7dcc7add00000000000000000000000000000000000000000000000000000000815260040160405180910390fd5b6001151561129e60076000868152602001908152602001600020611b82565b1515036112d7576040517f8de4a9e200000000000000000000000000000000000000000000000000000000815260040160405180910390fd5b6112f260076000858152602001908152602001600020611d00565b6113174260076000868152602001908152602001600020611d2090919063ffffffff16565b8073ffffffffffffffffffffffffffffffffffffffff166323b872dd61134e60076000878152602001908152602001600020611cd2565b3061136a60076000898152602001908152602001600020611bf9565b6040518463ffffffff1660e01b8152600401611388939291906137bc565b6020604051808303816000875af11580156113a7573d6000803e3d6000fd5b505050506040513d601f19601f820116820180604052508101906113cb919061378f565b50505050565b60006113e7826005611d2d90919063ffffffff16565b9050919050565b600080600084815260200190815260200160002060000160008373ffffffffffffffffffffffffffffffffffffffff1673ffffffffffffffffffffffffffffffffffffffff16815260200190815260200160002060009054906101000a900460ff16905092915050565b6000801b81565b6060600061146b610fce565b905060008167ffffffffffffffff811115611489576114886128df565b5b6040519080825280602002602001820160405280156114b75781602001602082028036833780820191505090505b50905060005b828110156115045760006114d0826113d1565b9050808383815181106114e6576114e561352c565b5b60200260200101818152505050806114fd9061358a565b90506114bd565b50809250505090565b6060600061151b6002611d47565b905060008167ffffffffffffffff811115611539576115386128df565b5b6040519080825280602002602001820160405280156115675781602001602082028036833780820191505090505b50905060005b828110156115bf57600061158b826002611d5c90919063ffffffff16565b9050808383815181106115a1576115a061352c565b5b60200260200101818152505050806115b89061358a565b905061156d565b50809250505090565b6000801b6115d58161188e565b6115df8383611d73565b505050565b6115ed82610ab9565b6115f68161188e565b6116008383611a73565b505050565b60606008600083815260200190815260200160002080546116259061327d565b80601f01602080910402602001604051908101604052809291908181526020018280546116519061327d565b801561169e5780601f106116735761010080835404028352916020019161169e565b820191906000526020600020905b81548152906001019060200180831161168157829003601f168201915b50505050509050919050565b7fa5ff3ec7a96cdbba4d2d5172d66bbc73c6db3885f29b21be5da9fa7a7c02523281565b6000801b6116db8161188e565b6116e482611e4d565b5050565b60007f01ffc9a7000000000000000000000000000000000000000000000000000000007bffffffffffffffffffffffffffffffffffffffffffffffffffffffff1916827bffffffffffffffffffffffffffffffffffffffffffffffffffffffff1916149050919050565b600060606000806000806000808860020154896009018a600801548b60060160009054906101000a900473ffffffffffffffffffffffffffffffffffffffff168c60070160009054906101000a900473ffffffffffffffffffffffffffffffffffffffff168d60000160009054906101000a900460ff168e600301548f60000160019054906101000a900467ffffffffffffffff168680546117f39061327d565b80601f016020809104026020016040519081016040528092919081815260200182805461181f9061327d565b801561186c5780601f106118415761010080835404028352916020019161186c565b820191906000526020600020905b81548152906001019060200180831161184f57829003601f168201915b5050505050965097509750975097509750975097509750919395975091939597565b61189f8161189a611a6b565b611f07565b50565b6000808260020154146118b857600190506118bd565b600090505b919050565b60008073ffffffffffffffffffffffffffffffffffffffff166001600084815260200190815260200160002060009054906101000a900473ffffffffffffffffffffffffffffffffffffffff1673ffffffffffffffffffffffffffffffffffffffff1614159050919050565b60008890506119668989898989898989600760008b8152602001908152602001600020611fa49098979695949392919063ffffffff16565b505050505050505050565b6000611983836000018360001b6120fd565b905092915050565b61199582826113ee565b611a6757600160008084815260200190815260200160002060000160008373ffffffffffffffffffffffffffffffffffffffff1673ffffffffffffffffffffffffffffffffffffffff16815260200190815260200160002060006101000a81548160ff021916908315150217905550611a0c611a6b565b73ffffffffffffffffffffffffffffffffffffffff168173ffffffffffffffffffffffffffffffffffffffff16837f2f8788117e7eff1d82e926ec794901d17c78024a50270940304540a733656f0d60405160405180910390a45b5050565b600033905090565b611a7d82826113ee565b15611b5057600080600084815260200190815260200160002060000160008373ffffffffffffffffffffffffffffffffffffffff1673ffffffffffffffffffffffffffffffffffffffff16815260200190815260200160002060006101000a81548160ff021916908315150217905550611af5611a6b565b73ffffffffffffffffffffffffffffffffffffffff168173ffffffffffffffffffffffffffffffffffffffff16837ff6391f5c32d9c69d2a47ea670b442974b53935d1edc7fd64eb21e047a839171b60405160405180910390a45b5050565b60008160070160009054906101000a900473ffffffffffffffffffffffffffffffffffffffff169050919050565b60008160000160009054906101000a900460ff169050919050565b600081600401549050919050565b60008160000160099054906101000a900467ffffffffffffffff1667ffffffffffffffff169050919050565b60008160000160019054906101000a900467ffffffffffffffff169050919050565b600081600301549050919050565b60008160010160009054906101000a90046fffffffffffffffffffffffffffffffff169050919050565b600081600501549050919050565b80826004016000828254611c5391906137f3565b925050819055505050565b600081600801549050919050565b60018160000160098282829054906101000a900467ffffffffffffffff16611c949190613827565b92506101000a81548167ffffffffffffffff021916908367ffffffffffffffff16021790555050565b6000611ccb8260000161216d565b9050919050565b60008160060160009054906101000a900473ffffffffffffffffffffffffffffffffffffffff169050919050565b60018160000160006101000a81548160ff02191690831515021790555050565b8082600501819055505050565b6000611d3c836000018361217e565b60001c905092915050565b6000611d558260000161216d565b9050919050565b6000611d6b836000018361217e565b905092915050565b600073ffffffffffffffffffffffffffffffffffffffff168173ffffffffffffffffffffffffffffffffffffffff1603611de2576040517f08c379a0000000000000000000000000000000000000000000000000000000008152600401611dd9906138d5565b60405180910390fd5b806001600084815260200190815260200160002060006101000a81548173ffffffffffffffffffffffffffffffffffffffff021916908373ffffffffffffffffffffffffffffffffffffffff160217905550611e488260026121a990919063ffffffff16565b505050565b600073ffffffffffffffffffffffffffffffffffffffff166001600083815260200190815260200160002060009054906101000a900473ffffffffffffffffffffffffffffffffffffffff1673ffffffffffffffffffffffffffffffffffffffff1603611eb957600080fd5b611ecd8160026121c090919063ffffffff16565b506001600082815260200190815260200160002060006101000a81549073ffffffffffffffffffffffffffffffffffffffff021916905550565b611f1182826113ee565b611fa057611f368173ffffffffffffffffffffffffffffffffffffffff1660146121d7565b611f448360001c60206121d7565b604051602001611f559291906139c9565b6040516020818303038152906040526040517f08c379a0000000000000000000000000000000000000000000000000000000008152600401611f9791906131c1565b60405180910390fd5b5050565b87896002018190555086896009019081611fbe919061345a565b50858960080181905550848960060160006101000a81548173ffffffffffffffffffffffffffffffffffffffff021916908373ffffffffffffffffffffffffffffffffffffffff160217905550838960070160006101000a81548173ffffffffffffffffffffffffffffffffffffffff021916908373ffffffffffffffffffffffffffffffffffffffff160217905550828960030181905550828960040181905550818960000160016101000a81548167ffffffffffffffff021916908367ffffffffffffffff160217905550808960010160006101000a8154816fffffffffffffffffffffffffffffffff02191690836fffffffffffffffffffffffffffffffff16021790555060008960000160096101000a81548167ffffffffffffffff021916908367ffffffffffffffff160217905550505050505050505050565b60006121098383612413565b612162578260000182908060018154018082558091505060019003906000526020600020016000909190919091505582600001805490508360010160008481526020019081526020016000208190555060019050612167565b600090505b92915050565b600081600001805490509050919050565b60008260000182815481106121965761219561352c565b5b9060005260206000200154905092915050565b60006121b883600001836120fd565b905092915050565b60006121cf8360000183612436565b905092915050565b6060600060028360026121ea91906136f8565b6121f491906136c4565b67ffffffffffffffff81111561220d5761220c6128df565b5b6040519080825280601f01601f19166020018201604052801561223f5781602001600182028036833780820191505090505b5090507f3000000000000000000000000000000000000000000000000000000000000000816000815181106122775761227661352c565b5b60200101907effffffffffffffffffffffffffffffffffffffffffffffffffffffffffffff1916908160001a9053507f7800000000000000000000000000000000000000000000000000000000000000816001815181106122db576122da61352c565b5b60200101907effffffffffffffffffffffffffffffffffffffffffffffffffffffffffffff1916908160001a9053506000600184600261231b91906136f8565b61232591906136c4565b90505b60018111156123c5577f3031323334353637383961626364656600000000000000000000000000000000600f8616601081106123675761236661352c565b5b1a60f81b82828151811061237e5761237d61352c565b5b60200101907effffffffffffffffffffffffffffffffffffffffffffffffffffffffffffff1916908160001a905350600485901c9450806123be90613a03565b9050612328565b5060008414612409576040517f08c379a000000000000000000000000000000000000000000000000000000000815260040161240090613a78565b60405180910390fd5b8091505092915050565b600080836001016000848152602001908152602001600020541415905092915050565b6000808360010160008481526020019081526020016000205490506000811461253e57600060018261246891906137f3565b905060006001866000018054905061248091906137f3565b90508181146124ef5760008660000182815481106124a1576124a061352c565b5b90600052602060002001549050808760000184815481106124c5576124c461352c565b5b90600052602060002001819055508387600101600083815260200190815260200160002081905550505b8560000180548061250357612502613a98565b5b600190038181906000526020600020016000905590558560010160008681526020019081526020016000206000905560019350505050612544565b60009150505b92915050565b604051806101800160405280600015158152602001600067ffffffffffffffff168152602001600067ffffffffffffffff16815260200160006fffffffffffffffffffffffffffffffff16815260200160008152602001600081526020016000815260200160008152602001600073ffffffffffffffffffffffffffffffffffffffff168152602001600073ffffffffffffffffffffffffffffffffffffffff16815260200160008019168152602001606081525090565b6000604051905090565b600080fd5b600080fd5b60007fffffffff0000000000000000000000000000000000000000000000000000000082169050919050565b61264b81612616565b811461265657600080fd5b50565b60008135905061266881612642565b92915050565b6000602082840312156126845761268361260c565b5b600061269284828501612659565b91505092915050565b60008115159050919050565b6126b08161269b565b82525050565b60006020820190506126cb60008301846126a7565b92915050565b6000819050919050565b6126e4816126d1565b81146126ef57600080fd5b50565b600081359050612701816126db565b92915050565b60006020828403121561271d5761271c61260c565b5b600061272b848285016126f2565b91505092915050565b61273d816126d1565b82525050565b600081519050919050565b600082825260208201905092915050565b60005b8381101561277d578082015181840152602081019050612762565b60008484015250505050565b6000601f19601f8301169050919050565b60006127a582612743565b6127af818561274e565b93506127bf81856020860161275f565b6127c881612789565b840191505092915050565b6000819050919050565b6127e6816127d3565b82525050565b600073ffffffffffffffffffffffffffffffffffffffff82169050919050565b6000612817826127ec565b9050919050565b6128278161280c565b82525050565b600067ffffffffffffffff82169050919050565b61284a8161282d565b82525050565b600061010082019050612866600083018b612734565b8181036020830152612878818a61279a565b905061288760408301896127dd565b612894606083018861281e565b6128a1608083018761281e565b6128ae60a08301866126a7565b6128bb60c0830185612734565b6128c860e0830184612841565b9998505050505050505050565b600080fd5b600080fd5b7f4e487b7100000000000000000000000000000000000000000000000000000000600052604160045260246000fd5b61291782612789565b810181811067ffffffffffffffff82111715612936576129356128df565b5b80604052505050565b6000612949612602565b9050612955828261290e565b919050565b600067ffffffffffffffff821115612975576129746128df565b5b61297e82612789565b9050602081019050919050565b82818337600083830152505050565b60006129ad6129a88461295a565b61293f565b9050828152602081018484840111156129c9576129c86128da565b5b6129d484828561298b565b509392505050565b600082601f8301126129f1576129f06128d5565b5b8135612a0184826020860161299a565b91505092915050565b612a13816127d3565b8114612a1e57600080fd5b50565b600081359050612a3081612a0a565b92915050565b612a3f8161280c565b8114612a4a57600080fd5b50565b600081359050612a5c81612a36565b92915050565b612a6b8161282d565b8114612a7657600080fd5b50565b600081359050612a8881612a62565b92915050565b60006fffffffffffffffffffffffffffffffff82169050919050565b612ab381612a8e565b8114612abe57600080fd5b50565b600081359050612ad081612aaa565b92915050565b600080600080600080600080610100898b031215612af757612af661260c565b5b6000612b058b828c016126f2565b985050602089013567ffffffffffffffff811115612b2657612b25612611565b5b612b328b828c016129dc565b9750506040612b438b828c01612a21565b9650506060612b548b828c01612a4d565b9550506080612b658b828c016126f2565b94505060a0612b768b828c01612a79565b93505060c0612b878b828c01612ac1565b92505060e089013567ffffffffffffffff811115612ba857612ba7612611565b5b612bb48b828c016129dc565b9150509295985092959890939650565b600067ffffffffffffffff821115612bdf57612bde6128df565b5b602082029050602081019050919050565b600080fd5b6000612c08612c0384612bc4565b61293f565b90508083825260208201905060208402830185811115612c2b57612c2a612bf0565b5b835b81811015612c545780612c4088826126f2565b845260208401935050602081019050612c2d565b5050509392505050565b600082601f830112612c7357612c726128d5565b5b8135612c83848260208601612bf5565b91505092915050565b600060208284031215612ca257612ca161260c565b5b600082013567ffffffffffffffff811115612cc057612cbf612611565b5b612ccc84828501612c5e565b91505092915050565b600081519050919050565b600082825260208201905092915050565b6000819050602082019050919050565b612d0a8161269b565b82525050565b612d198161282d565b82525050565b612d2881612a8e565b82525050565b612d37816126d1565b82525050565b612d468161280c565b82525050565b612d55816127d3565b82525050565b600082825260208201905092915050565b6000612d7782612743565b612d818185612d5b565b9350612d9181856020860161275f565b612d9a81612789565b840191505092915050565b600061018083016000830151612dbe6000860182612d01565b506020830151612dd16020860182612d10565b506040830151612de46040860182612d10565b506060830151612df76060860182612d1f565b506080830151612e0a6080860182612d2e565b5060a0830151612e1d60a0860182612d2e565b5060c0830151612e3060c0860182612d2e565b5060e0830151612e4360e0860182612d2e565b50610100830151612e58610100860182612d3d565b50610120830151612e6d610120860182612d3d565b50610140830151612e82610140860182612d4c565b50610160830151848203610160860152612e9c8282612d6c565b9150508091505092915050565b6000612eb58383612da5565b905092915050565b6000602082019050919050565b6000612ed582612cd5565b612edf8185612ce0565b935083602082028501612ef185612cf1565b8060005b85811015612f2d5784840389528151612f0e8582612ea9565b9450612f1983612ebd565b925060208a01995050600181019050612ef5565b50829750879550505050505092915050565b60006020820190508181036000830152612f598184612eca565b905092915050565b600060208284031215612f7757612f7661260c565b5b6000612f8584828501612a21565b91505092915050565b6000602082019050612fa360008301846127dd565b92915050565b60008060408385031215612fc057612fbf61260c565b5b6000612fce85828601612a21565b9250506020612fdf85828601612a4d565b9150509250929050565b6000602082019050612ffe600083018461281e565b92915050565b60006020820190506130196000830184612734565b92915050565b600081519050919050565b600082825260208201905092915050565b6000819050602082019050919050565b60006130578383612d2e565b60208301905092915050565b6000602082019050919050565b600061307b8261301f565b613085818561302a565b93506130908361303b565b8060005b838110156130c15781516130a8888261304b565b97506130b383613063565b925050600181019050613094565b5085935050505092915050565b600060208201905081810360008301526130e88184613070565b905092915050565b600081519050919050565b600082825260208201905092915050565b6000819050602082019050919050565b60006131288383612d4c565b60208301905092915050565b6000602082019050919050565b600061314c826130f0565b61315681856130fb565b93506131618361310c565b8060005b83811015613192578151613179888261311c565b975061318483613134565b925050600181019050613165565b5085935050505092915050565b600060208201905081810360008301526131b98184613141565b905092915050565b600060208201905081810360008301526131db818461279a565b905092915050565b6000815190506131f2816126db565b92915050565b60006020828403121561320e5761320d61260c565b5b600061321c848285016131e3565b91505092915050565b600060408201905061323a600083018561281e565b613247602083018461281e565b9392505050565b7f4e487b7100000000000000000000000000000000000000000000000000000000600052602260045260246000fd5b6000600282049050600182168061329557607f821691505b6020821081036132a8576132a761324e565b5b50919050565b60008190508160005260206000209050919050565b60006020601f8301049050919050565b600082821b905092915050565b6000600883026133107fffffffffffffffffffffffffffffffffffffffffffffffffffffffffffffffff826132d3565b61331a86836132d3565b95508019841693508086168417925050509392505050565b6000819050919050565b600061335761335261334d846126d1565b613332565b6126d1565b9050919050565b6000819050919050565b6133718361333c565b61338561337d8261335e565b8484546132e0565b825550505050565b600090565b61339a61338d565b6133a5818484613368565b505050565b5b818110156133c9576133be600082613392565b6001810190506133ab565b5050565b601f82111561340e576133df816132ae565b6133e8846132c3565b810160208510156133f7578190505b61340b613403856132c3565b8301826133aa565b50505b505050565b600082821c905092915050565b600061343160001984600802613413565b1980831691505092915050565b600061344a8383613420565b9150826002028217905092915050565b61346382612743565b67ffffffffffffffff81111561347c5761347b6128df565b5b613486825461327d565b6134918282856133cd565b600060209050601f8311600181146134c457600084156134b2578287015190505b6134bc858261343e565b865550613524565b601f1984166134d2866132ae565b60005b828110156134fa578489015182556001820191506020850194506020810190506134d5565b868310156135175784890151613513601f891682613420565b8355505b6001600288020188555050505b505050505050565b7f4e487b7100000000000000000000000000000000000000000000000000000000600052603260045260246000fd5b7f4e487b7100000000000000000000000000000000000000000000000000000000600052601160045260246000fd5b6000613595826126d1565b91507fffffffffffffffffffffffffffffffffffffffffffffffffffffffffffffffff82036135c7576135c661355b565b5b600182019050919050565b7f416363657373436f6e74726f6c3a2063616e206f6e6c792072656e6f756e636560008201527f20726f6c657320666f722073656c660000000000000000000000000000000000602082015250565b600061362e602f8361274e565b9150613639826135d2565b604082019050919050565b6000602082019050818103600083015261365d81613621565b9050919050565b7f4e487b7100000000000000000000000000000000000000000000000000000000600052601260045260246000fd5b600061369e826126d1565b91506136a9836126d1565b9250826136b9576136b8613664565b5b828204905092915050565b60006136cf826126d1565b91506136da836126d1565b92508282019050808211156136f2576136f161355b565b5b92915050565b6000613703826126d1565b915061370e836126d1565b925082820261371c816126d1565b915082820484148315176137335761373261355b565b5b5092915050565b600060408201905061374f600083018561281e565b61375c6020830184612734565b9392505050565b61376c8161269b565b811461377757600080fd5b50565b60008151905061378981613763565b92915050565b6000602082840312156137a5576137a461260c565b5b60006137b38482850161377a565b91505092915050565b60006060820190506137d1600083018661281e565b6137de602083018561281e565b6137eb6040830184612734565b949350505050565b60006137fe826126d1565b9150613809836126d1565b92508282039050818111156138215761382061355b565b5b92915050565b60006138328261282d565b915061383d8361282d565b9250828201905067ffffffffffffffff81111561385d5761385c61355b565b5b92915050565b7f416c6c6f77616e6365733a20546865205a65726f20416464726573732069732060008201527f6e6f7420616c6c6f776564000000000000000000000000000000000000000000602082015250565b60006138bf602b8361274e565b91506138ca82613863565b604082019050919050565b600060208201905081810360008301526138ee816138b2565b9050919050565b600081905092915050565b7f416363657373436f6e74726f6c3a206163636f756e7420000000000000000000600082015250565b60006139366017836138f5565b915061394182613900565b601782019050919050565b600061395782612743565b61396181856138f5565b935061397181856020860161275f565b80840191505092915050565b7f206973206d697373696e6720726f6c6520000000000000000000000000000000600082015250565b60006139b36011836138f5565b91506139be8261397d565b601182019050919050565b60006139d482613929565b91506139e0828561394c565b91506139eb826139a6565b91506139f7828461394c565b91508190509392505050565b6000613a0e826126d1565b915060008203613a2157613a2061355b565b5b600182039050919050565b7f537472696e67733a20686578206c656e67746820696e73756666696369656e74600082015250565b6000613a6260208361274e565b9150613a6d82613a2c565b602082019050919050565b60006020820190508181036000830152613a9181613a55565b9050919050565b7f4e487b7100000000000000000000000000000000000000000000000000000000600052603160045260246000fdfea26469706673582212204624680438d87442777ec5488fa9a3dba5ccdff25f61a6d53106a536b171517264736f6c63430008110033",
  "linkReferences": {},
  "deployedLinkReferences": {}
}